:10000000F6C0000025C1000023C1000021C100008E
:100010001FC100001DC100001BC1000019C100006C
:1000200017C1000015C1000013C1000011C100007C
:100030000FC100000DC100000BC1000009C100008C
:1000400007C1000005C1000003C1000001C100009C
:10005000FFC00000FDC00000FBC000000C946B0955
:10006000F7C000000C9435090C940C09F1C0000095
:10007000EFC00000EDC00000EBC00000E9C00000D0
:10008000E7C00000E5C00000E3C00000E1C00000E0
:10009000DFC00000DDC00000DBC00000D9C00000F0
:1000A000D7C00000D5C00000D3C00000D1C0000000
:1000B000CFC00000CDC00000CBC00000C9C0000010
:1000C000C7C00000C5C00000C3C000000C94D60823
:1000D0000C94AD08BDC00000BBC00000B9C000005A
:1000E000B7C0000000000A0B02090C0D0E08070340
:1000F00004010000000000000000000000000000FB
:1001000000000000000000000000000000000000EF
:1001100012111000000000000000000000000000AC
:100120000000000000000000000000002200250088
:1001300028002B002E0031003400020100000501D0
:1001400008010B0100002100240027002A002D00D7
:100150003000330001010000040107010A01050518
:100160000505070508080808020202020A0A08082D
:10017000040404040101010101010101030303035B
:1001800003030303040707070C0C0C0C0C0C0C0CEA
:100190000202020206060606060606060B0B0B0BFB
:1001A0000B0B0B0B01021020200808102040102020
:1001B000408002010201080402010102040810202B
:1001C0004080804020100804020180040201804029
:1001D0002010080402010804020101020408102092
:1001E00040800102040810204080B509DE0C112473
:1001F0001FBECFEFD1E2DEBFCDBF00E00CBF24E0D9
:10020000A6EBB2E001C01D92AB36B207E1F712E0F7
:10021000A0E0B2E0E0E8FFE100E00BBF02C0079021
:100220000D92A63BB107D9F710E0C6EFD0E000E091
:1002300006C021970109802FFE010E94960DC53F3F
:10024000D10780E00807A9F70E94540A0C94AF0F69
:10025000D7CE90E0FC01EC55FE4F2491825A9E4F80
:10026000FC018491882399F090E0880F991FFC018C
:10027000EC5BFE4FA591B491FC01E65DFE4F8591CC
:1002800094918FB7F894EC91E22BEC938FBF089583
:10029000FC01A089B18982E08C93A485B5851C926C
:1002A000A685B7858FEC8C93108EA489B58986E0DE
:1002B0008C93A289B3898C9180618C93A289B38934
:1002C0008C9188608C93A289B3898C9180688C937F
:1002D0000288F389E02D80818F7D808308952091AD
:1002E0004C04E9E4F4E080E09FEF281719F09193C3
:1002F0008F5FFBCF10924C0408950895AF92BF9288
:10030000CF92DF92EF92FF920F931F93CF93DF93E1
:100310006C017B018B01040F151FEB015E01AE1810
:10032000BF08C017D10759F06991D601ED91FC9132
:100330000190F081E02DC6011995892B79F7C5014F
:10034000DF91CF911F910F91FF90EF90DF90CF90B1
:10035000BF90AF900895FC01538D448D252F30E060
:10036000842F90E0821B930B541710F0CF960895C2
:1003700001970895FC01918D828D981761F0A28DEF
:10038000AE0FBF2FB11D5D968C91928D9F5F9F73B5
:10039000928F90E008958FEF9FEF0895FC01918D6B
:1003A000828D981731F0828DE80FF11D858D90E0D8
:1003B00008958FEF9FEF0895FC01918D228D892F75
:1003C00090E0805C9F4F821B91098F73992708955D
:1003D0008AEA93E0F1DF21E0892B09F420E0822F03
:1003E000089587EC92E0E8DF21E0892B09F420E012
:1003F000822F0895FC01A48DA80FB92FB11DA35A17
:10040000BF4F2C91848D90E001968F739927848F34
:10041000A689B7892C93A089B1898C918370806457
:100420008C93938D848D981306C00288F389E02DF8
:1004300080818F7D80830895EF92FF920F931F93A9
:10044000CF93DF93EC0181E0888F9B8D8C8D981387
:100450001AC0E889F989808185FF15C09FB7F89493
:10046000EE89FF896083E889F989808183708064DF
:1004700080839FBF81E090E0DF91CF911F910F912A
:10048000FF90EF900895F62E0B8D10E00F5F1F4F39
:100490000F731127E02E8C8D8E110BC00FB607FC49
:1004A000FACFE889F989808185FFF5CFCE01A2DFF7
:1004B000F2CFEB8DEC0FFD2FF11DE35AFF4FF082D1
:1004C0009FB7F8940B8FEA89FB8980818062D0CF37
:1004D000CF93DF93EC01888D8823B1F0AA89BB8983
:1004E000E889F9898C9185FD03C0808186FD0CC067
:1004F0000FB607FCF7CF8C9185FFF2CF808185FF87
:10050000EDCFCE0177DFEACFDF91CF91089580E084
:1005100090E0892B21F065DF81110E94000080E0CE
:1005200090E0892B49F080E090E0892B29F00E942F
:10053000000081110E94000080E090E0892B21F0F2
:1005400047DF81110E94000080E090E0892B49F094
:1005500080E090E0892B29F00E94000081110C942A
:1005600000000895282F30E0F901EC51FF4F9491DD
:10057000F901EC55FE4F4491225A3E4FF901249166
:10058000222309F435C0992311F191509231F8F4E6
:10059000E92FF0E08827E053FD4F8F4F0C94960D24
:1005A00001030503E202F902FD02E70208030E035C
:1005B000120318031C03200326032A03E7022E0359
:1005C00034033803809180008F7780938000E22F7E
:1005D000F0E0EE0FFF1FE65DFE4FA591B4918FB7DF
:1005E000F894EC91611148C040954E234C938FBF15
:1005F0000895809180008F7DE8CF80918000877F73
:10060000E4CF84B58F7784BDE2CF84B58F7DFBCFF7
:100610008091B0008F778093B000D9CF8091B000E7
:100620008F7DF9CF809190008F7780939000CFCF0E
:10063000809190008F7DF9CF80919000877FF5CFDA
:100640008091A0008F778093A000C1CF8091A000FF
:100650008F7DF9CF8091A000877FF5CF8091200119
:100660008F7780932001B3CF809120018F7DF9CFC8
:1006700080912001877FF5CF4E2BB8CF1F93CF936A
:10068000DF93182FEB01E5DD209731F460E0812F37
:10069000DF91CF911F9166CFCF3FD10511F461E07B
:1006A000F6CFE12FF0E0EC51FF4FE491E150E23161
:1006B00008F0B3C0F0E08827EF59FC4F8F4F0C943F
:1006C000960D73037B0380038A0394030D049E033A
:1006D000A603AE03B803C203CC03DB03E5030D049A
:1006E000EF03F903030484B5806884BDC7BDDF91BF
:1006F000CF911F91089584B5806284BDC8BDF7CFA6
:1007000080918000806880938000D0938900C0939E
:100710008800EDCF80918000806280938000D0932C
:100720008B00C0938A00E3CF809180008860809323
:100730008000D0938D00C0938C00D9CF8091B00001
:1007400080688093B000C093B300D1CF8091B00097
:1007500080628093B000C093B400C9CF80919000B4
:10076000806880939000D0939900C0939800BFCF89
:1007700080919000806280939000D0939B00C09302
:100780009A00B5CF80919000886080939000D093BC
:100790009D00C0939C00ABCF8091A00080688093A7
:1007A000A0008091A0008F7B8093A000D093A9002F
:1007B000C093A8009CCF8091A00080628093A0008D
:1007C000D093AB00C093AA0092CF8091A000886024
:1007D0008093A000D093AD00C093AC0088CF8091EF
:1007E0002001806880932001D0932901C0932801C3
:1007F0007ECF80912001806280932001D0932B01D5
:10080000C0932A0174CF80912001886080932001D9
:10081000D0932D01C0932C016ACFC038D1050CF0C4
:100820003ECF34CF3FB7F8948091BB029091BC0289
:10083000A091BD02B091BE0226B5A89B05C02F3F76
:1008400019F00196A11DB11D3FBFBA2FA92F982FF6
:100850008827BC01CD01620F711D811D911D42E0F1
:10086000660F771F881F991F4A95D1F708958F92B9
:100870009F92AF92BF92CF92DF92EF92FF924B0185
:100880005C01D0DF6B017C01CDDF6C197D098E0925
:100890009F09683E734081059105B0F321E0821AFB
:1008A0009108A108B10888EEC80E83E0D81EE11CAB
:1008B000F11C81149104A104B10431F7FF90EF9071
:1008C000DF90CF90BF90AF909F908F9008952FB7FB
:1008D000F8946091B7027091B8028091B90290913A
:1008E000BA022FBF0895CF92DF92EF92FF92EFDF0F
:1008F0006B017C01ECDF6C197D098E099F09643F57
:1009000071408105910538F5809147049091480424
:10091000DC01ED91FC910084F185E02D1995892B86
:1009200049F38091470490914804DC01ED91FC91DA
:100930000284F385E02D19958A3F69F090914C046B
:100940009230C1F2E92FF0E0E95BFB4F82839F5FB9
:1009500090934C04CFCFFF90EF90DF90CF9008950D
:1009600070E060E082E08ADE62E370E080E090E0C8
:100970007EDF60E088E1F6DD64EF71E080E090E02A
:1009800076DF66E970E082E079DE64E170E080E0C5
:1009900090E06DDF70E060E082E070DE64EF71E0B7
:1009A00080E090E064DF61E088E1DCDD80910002BE
:1009B00091E0892780930002089570E060E083E071
:1009C0005DDE62E370E080E090E051DF60E089E1AD
:1009D000C9DD64EF71E080E090E049DF66E970E036
:1009E00083E04CDE64E170E080E090E040DF70E0A6
:1009F00060E083E043DE64EF71E080E090E037DFA9
:100A000061E089E1AFDD8091090291E0892780935F
:100A100009020895FB0101900020E9F73197AF0129
:100A2000461B570BDC01ED91FC910280F381E02D18
:100A30001994CF93DF93FC014481558160817181CA
:100A400087EC92E05BDCEC0162E272E087EC92E022
:100A5000E1DF8C0F9D1FDF91CF910895CF93DF933E
:100A6000D0E0C0E0009729F0BC0187EC92E0D2DF33
:100A7000EC0162E272E087EC92E0CCDF8C0F9D1F0C
:100A8000DF91CF910895CF93DF93EC018881998115
:100A9000009711F00E943A0E198218821D821C8262
:100AA0001B821A82DF91CF910895FC018081918190
:100AB000009711F00C943A0E08950F931F93CF9363
:100AC000DF93EC0188819981009759F02A813B815D
:100AD0002617370730F081E0DF91CF911F910F91FA
:100AE00008958B016F5F7F4F0E94C30E009759F0EE
:100AF000998388831B830A832C813D81232B59F79B
:100B0000FC011082E8CF80E0E7CFEF92FF920F93D5
:100B10001F93CF93DF936115710541F480E0DF915E
:100B2000CF911F910F91FF90EF90089541155105BE
:100B3000A9F07B01EC010C811D81040F151FB80188
:100B4000BCDF882359F3288139818C819D81B701CD
:100B5000820F931F0E94A80F1D830C8381E0DFCFBB
:100B6000CF93DF93EC0141E050E065E272E0CDDF2E
:100B7000811102C0CE0187DFCE01DF91CF910895B0
:100B8000CF93DF93EC01FB0144815581608171813A
:100B9000BCDF811102C0CE0176DFCE01DF91CF91A3
:100BA0000895EF92FF920F931F93CF93DF93EC0181
:100BB0007B018A01BA0181DF81110AC0CE0163DFA6
:100BC000CE01DF91CF911F910F91FF90EF9008958B
:100BD0001D830C83B701888199810E94A80FF0CFF3
:100BE000FB0101900020E9F73197AF01461B570B3D
:100BF000D8CF0F931F93CF93DF93CDB7DEB7629714
:100C00000FB6F894DEBF0FBECDBF8C01CB01F8014B
:100C10001182108213821282158214824AE0BE0170
:100C20006F5F7F4FCED6BE016F5F7F4FC801D8DFA9
:100C300062960FB6F894DEBF0FBECDBFDF91CF91A5
:100C40001F910F910895CF93DF93EC01FB0186175D
:100C5000970741F0608171816115710539F0448118
:100C600055819FDFCE01DF91CF9108950CDFFACF40
:100C7000EF92FF920F931F93CF93DF93CDB7DEB721
:100C80002E970FB6F894DEBF0FBECDBF18861F8219
:100C90001A8619861C861B86BC01CE010796D3DFF7
:100CA000E0904704F09048041A8219821C821B824B
:100CB0001E821D8288EF8D871E86BE01635F7F4F77
:100CC000CE0101968DDFBE01695F7F4FCE01019697
:100CD00057DF8C018AEF8D871E8641E050E0BE0110
:100CE000635F7F4FC80111DF811102C0C801CBDEF5
:100CF000D80114964D915C9115976D917C91D70117
:100D0000ED91FC910280F381E02DC7011995CE0190
:100D10000196CBDECE010796C8DE2E960FB6F8946C
:100D2000DEBF0FBECDBFDF91CF911F910F91FF901E
:100D3000EF900895FC0111821082138212821582B5
:100D40001482FB0101900020E9F73197AF01461BA7
:100D5000570B27CF3F924F925F926F927F928F9265
:100D60009F92AF92BF92CF92DF92EF92FF920F933A
:100D70001F93CF93DF93CDB7DEB7A3970FB6F89449
:100D8000DEBF0FBECDBF8091470490914804DC01C7
:100D9000ED91FC910084F185E02D1995DD24D3942B
:100DA000181619060CF0D12C59E3852E64E3962E03
:100DB00072E3C72EEFE0AE2EE7E2BE2E332433946B
:100DC0008091470490914804DC01ED91FC910084EE
:100DD000F185E02D1995181619060CF0A5C1809122
:100DE000470490914804DC01ED91FC910284F38565
:100DF000E02D19958B3F59F476DD8091490480935D
:100E00004D0480914A0480934E0469DAD9CF8C3F17
:100E100031F469DD8091490480935104F6CF8D3F10
:100E200051F461DD809149048093500480914A041B
:100E300080934F04EACF8E3F09F072C064E272E003
:100E4000CE01019677DF43DD42DD2B013C013FDD22
:100E500064197509860997096838734181059105F8
:100E600028F58091470490914804DC01ED91FC91B4
:100E70000084F185E02D1995892B49F38091470471
:100E800090914804DC01ED91FC910284F385E02D02
:100E900019958A3F59F08AA31BA241E050E0BE0198
:100EA0006E5D7F4FCE01019630DED1CF809153042D
:100EB000909154040097E9F069817A816115710578
:100EC000B9F040915504509156042D813E8142174E
:100ED000530770F00E94A80F8D819E819093580453
:100EE000809357041E821D82CE010196DEDD8DCFD8
:100EF000C1D689819A8190935404809353048B8145
:100F00009C8190935604809355048D819E8190938B
:100F10005804809357041A8219821C821B82E2CFE4
:100F2000843F09F0F1C0E0916504F09166043097C8
:100F300009F019958091590490915A04009709F08D
:100F400099D680915B0490915C04009709F092D649
:100F5000BEDCB0926204A0926104F12CE12C10E09E
:100F600000E0809147049091480420916104309101
:100F70006204220F331F2E153F050CF4A6C0DC01BE
:100F8000ED91FC910084F185E02D1995892B09F4F0
:100F900042C08091470490914804DC01ED91FC919E
:100FA0000284F385E02D1995E1E0F0E0EC0FFD1FE0
:100FB000E00FF11F80830F5F1F4F0430110559F5BB
:100FC00049805A806B807C80BFEFEB1AFB0AE1E01E
:100FD000EE16F10411F5C301B20173D570936204EA
:100FE000609361040FEF1FEF6115F0E27F0728F4B3
:100FF0008B01000F111F000F111FC8019FD5909387
:101000005A0480935904C80199D590935C04809345
:101010005B0410E000E05BDCA4CF87011595079529
:1010200001501109000F111F000F111F20E034E2C1
:1010300044E759E4C301B2019F7774D5181654F5FB
:101040008091590490915A04980124503109FC016F
:10105000E20FF31F4081518162817381800F911FE4
:10106000DC014D935D936D937C93139780915B04AA
:1010700090915C04280F391FF901408151816281F0
:101080007381080F191FD8014D935D936D937C9365
:101090001397BFCFE0FC0CC08091590490915A0483
:1010A000080F191FF8014082518262827382B1CF0A
:1010B00080915B0490915C04080F191FD8014D9238
:1010C0005D926D927C921397A4CF30925204DC0112
:1010D000ED91FC910190F081E02D65EF19958091E3
:1010E000470490914804DC01ED91FC910680F78162
:1010F000E02D1995F4D8E0916304F09164043097E1
:1011000009F45ECE19955CCE893F09F059CE8091E5
:1011100047049091480419A288A29F8ECE8EBE01EA
:10112000625E7F4F77DC4CCE8D2DA3960FB6F89480
:10113000DEBF0FBECDBFDF91CF911F910F91FF900A
:10114000EF90DF90CF90BF90AF909F908F907F9067
:101150006F905F904F903F9008951F920F920FB63F
:101160000F9211240BB60F922F933F934F935F93DF
:101170006F937F938F939F93AF93BF93EF93FF935F
:101180008AEA93E037D9FF91EF91BF91AF919F9198
:101190008F917F916F915F914F913F912F910F9020
:1011A0000BBE0F900FBE0F901F9018951F920F92BD
:1011B0000FB60F9211240BB60F922F938F939F931C
:1011C000EF93FF93E091BA03F091BB038081E0912C
:1011D000C003F091C10382FD1DC090818091C303C3
:1011E0008F5F8F732091C403821741F0E091C30396
:1011F000F0E0E655FC4F958F8093C303FF91EF918C
:101200009F918F912F910F900BBE0F900FBE0F905B
:101210001F9018958081F2CF1F920F920FB60F92F8
:1012200011240BB60F922F933F934F935F936F93BD
:101230007F938F939F93AF93BF93EF93FF9387EC2D
:1012400092E0D8D8FF91EF91BF91AF919F918F918C
:101250007F916F915F914F913F912F910F900BBEB6
:101260000F900FBE0F901F9018951F920F920FB600
:101270000F9211240BB60F922F938F939F93EF939E
:10128000FF93E091D702F091D8028081E091DD02D6
:10129000F091DE0282FD1DC090818091E0028F5F9F
:1012A0008F732091E102821741F0E091E002F0E0BB
:1012B000E953FD4F958F8093E002FF91EF919F914D
:1012C0008F912F910F900BBE0F900FBE0F901F901C
:1012D00018958081F2CF1F920F920FB60F921124B2
:1012E0002F933F938F939F93AF93BF938091B702B8
:1012F0009091B802A091B902B091BA023091B602B1
:1013000023E0230F2D3758F50196A11DB11D209321
:10131000B6028093B7029093B802A093B902B0933B
:10132000BA028091BB029091BC02A091BD02B09123
:10133000BE020196A11DB11D8093BB029093BC0219
:10134000A093BD02B093BE02BF91AF919F918F91C8
:101350003F912F910F900FBE0F901F90189526E888
:10136000230F0296A11DB11DD2CFCF93DF93EAEADE
:10137000F3E01382128248EE53E060E070E04483B1
:1013800055836683778384E192E09183808325EDA2
:1013900030E03587248724ED30E03787268720ED3D
:1013A00030E0318B208B21ED30E0338B228B22ED2E
:1013B00030E0358B248B26ED30E0378B268B118E79
:1013C000128E138E148EA7ECB2E013961C921E920E
:1013D000129714964D935D936D937C931797119686
:1013E0009C938E9385EC90E01D969C938E931C9716
:1013F00084EC90E01F969C938E931E9780EC90E077
:1014000051969C938E93509781EC90E053969C93C9
:101410008E93529782EC90E055969C938E935497BE
:1014200086EC90E057969C938E93569759961C9213
:1014300059975A961C925A975B961C925B975C96AA
:101440001C92A4E6B3E016961D921D921D921C926A
:1014500019971A961D921D921D921C921D971E9609
:101460001D921D921D921C92519752961D921D9293
:101470001D921C925597C7E4D4E0F983E8831D823E
:1014800081E38E838F838FEF888789878A871B8686
:1014900064E272E083E594E04DDC1D8E1C8E1F8EAD
:1014A0001E8EDF91CF910895CF93DF93CDB7DEB736
:1014B00068970FB6F894DEBF0FBECDBF789484B5A1
:1014C000826084BD84B5816084BD85B5826085BD40
:1014D00085B5816085BD80916E00816080936E00CE
:1014E00010928100809181008260809381008091C0
:1014F0008100816080938100809180008160809371
:1015000080008091B10084608093B1008091B00030
:1015100081608093B00080919100826080939100FF
:101520008091910081608093910080919000816012
:10153000809390008091A10082608093A1008091AF
:10154000A10081608093A1008091A00081608093C0
:10155000A00080912101826080932101809121016E
:10156000816080932101809120018160809320011E
:1015700080917A00846080937A0080917A00826002
:1015800080937A0080917A00816080937A008091C4
:101590007A00806880937A001092C1001092A603AE
:1015A0001092A7031092A8031092A9031092660349
:1015B00010926703109268031092690388D96B0137
:1015C0007C014B015C0128EB820E2BE0921EA11CDA
:1015D000B11C7DD96C157D058E059F0528F08616FA
:1015E0009706A806B906A8F768EE73E080E090E0D9
:1015F0003ED987EC92E00E94480169D96093660366
:1016000070936703809368039093690367E272E0C5
:1016100087EC92E0FFD95BD96B017C014B015C0147
:101620008AE0880E911CA11CB11C51D96C157D0556
:101630008E059F0528F086169706A806B906A8F716
:1016400081E080937A0388E10E94290189E10E9468
:10165000290161E088E10E94B20261E089E10E9413
:10166000B20287EC92E00E9448018AEA93E00E946D
:101670004801809109029091000298138093000222
:10168000CC24CA94DD24D39406E910E088E7E82E40
:10169000F12C60DB80915104C092510490E08F3FA7
:1016A00011F48FEF9FEF9093C6028093C50252DB37
:1016B0001C8A1B8A1E8A1D8A188E1F8A63E574E0A5
:1016C000CE014396C0DA64E272E083E594E088DA02
:1016D00041DB80914D0490E09093C4028093C3025B
:1016E00039DB80914E0490E09093C2028093C10256
:1016F0008091C5029091C6028F3F980709F100972B
:1017000009F043C08091BF0268E372E0811102C01A
:1017100060E472E0CE0101960DDBCE010196A8DAFD
:10172000CE010196C2D9B090BF02BD24B092BF02D3
:1017300080910002B81214D980910902B8123DD9E3
:101740006091C3027091C4024091C1025091C202E3
:1017500080910702909108028617970741F4209123
:101760000502309106022417350709F462C0709310
:101770000802609307025093060240930502CE01CF
:10178000439693D90E94870284CF8130910501F559
:101790008091C0028D258093C00268E472E08111BF
:1017A00002C06BE572E0CE010196C4DACE0101966B
:1017B0005FDACE01019679D98091C0028111C0CF44
:1017C000B090BF02809100028B1509F4B5CFB3CF62
:1017D0008230910599F41092040210920302109243
:1017E00002021092010270E060E082E00E943E037B
:1017F00070E060E083E00E943E03A2CF8330910559
:10180000A9F4B09000028091BF02B81641F0D5D87B
:10181000BD24B09200028FE692E020D991CFA0D8EB
:10182000809109028D2580930902F5CF8B589D4F39
:10183000F4CFC1979093C4028093C302215331091E
:101840003093C2022093C10297FF03C09195819506
:1018500091090A97BCF410920402109203021092AC
:10186000020210920102609103027091040282E070
:101870000E943E03609101027091020283E00E9487
:101880003E037DCF2C3E8FEF38070CF046C0809191
:10189000C002882309F438C080910002811160D809
:1018A00080910902811101C088D8F0920402E0926F
:1018B0000302F0920202E09201026091090270E0DC
:1018C000CE01019696D96091000270E0CE01079694
:1018D00090D967E972E0CE010D962CDABE01695FFE
:1018E0007F4FCE010D964CD93BD9BE016F5F7F4F24
:1018F00047D99FD8CE010D96D8D8CE010796D5D816
:10190000CE010196D2D8AFCF1092040210920302FA
:101910001093020200930102D0CF253131056CF102
:101920008091C002882301F180910902811145D87C
:1019300080910002811101C013D8F0920202E0925E
:101940000102F0920402E09203026091090270E049
:10195000CE0101964ED96091000270E0CE0107964B
:1019600048D961EA72E0B7CF1092020210920102E8
:101970001093040200930302E8CF8091BF028823F2
:10198000C1F08CEA92E06AD880910002909109023D
:10199000891731F09091BF0289130EC00E94B004E4
:1019A00010930402009303021093020200930102B9
:1019B0005ACF80E492E0E7CF00D8F2CF83E594E0FD
:1019C00074C8BB274A3031F4992322F4BDE29095C4
:1019D00081959F4F01C0BB27FB015527AA27880F80
:1019E000991FAA1FA41710F0A41B83955051B9F793
:1019F000A05DAA3308F0A95DA193009779F7B11112
:101A0000B1931192CB0100C0DC01FC01672F7191F1
:101A10007723E1F7329704C07C916D9370836291D4
:101A2000AE17BF07C8F30895990F0008550FAA0B0A
:101A3000E0E8FEEF16161706E807F907C0F01216E1
:101A40001306E407F50798F0621B730B840B950BE4
:101A500039F40A2661F0232B242B252B21F4089539
:101A60000A2609F4A140A6958FEF811D811D0895D6
:101A700057FD9058440F551F59F05F3F71F047953F
:101A8000880F97FB991F61F09F3F79F08795089524
:101A9000121613061406551FF2CF4695F1DF08C043
:101AA000161617061806991FF1CF86957105610560
:101AB00008940895E894BB2766277727CB0197F908
:101AC000089504D06894B111F6CF0895D9DF88F055
:101AD0009F5790F0B92F9927B751A0F0D1F0660F1A
:101AE000771F881F991F1AF0BA95C9F712C0B13035
:101AF00081F0E0DFB1E00895DDCF672F782F8827F0
:101B0000B85F39F0B93FCCF3869577956795B39573
:101B1000D9F73EF490958095709561957F4F8F4FE2
:101B20009F4F089581DF08F48FEF0895EE0FFF1F98
:101B3000881F8BBF0790F691E02D19940F931F9388
:101B4000CF93DF938230910510F482E090E0E09132
:101B50006904F0916A0430E020E0B0E0A0E0309742
:101B600099F42115310509F44AC0281B390B24309A
:101B70003105D8F58A819B816115710589F1FB01D9
:101B800093838283FE0111C04081518102811381C0
:101B900048175907E0F04817590799F4109761F072
:101BA00012960C93129713961C933296CF01DF91E5
:101BB000CF911F910F9108950093690410936A04C7
:101BC000F4CF2115310551F04217530738F0A90120
:101BD000DB019A01BD01DF01F801C1CFEF01F9CFAF
:101BE00090936A0480936904CDCFFE01E20FF31F46
:101BF000819391932250310939832883D7CF209143
:101C0000670430916804232B41F420910C02309139
:101C10000D02309368042093670420910A023091EA
:101C20000B022115310541F42DB73EB740910E024C
:101C300050910F02241B350BE0916704F09168046A
:101C4000E217F307A0F42E1B3F0B2817390778F093
:101C5000AC014E5F5F4F2417350748F04E0F5F1FF2
:101C60005093680440936704819391939FCFF0E071
:101C7000E0E09CCFCF93DF930097E9F0FC0132972F
:101C800013821282A0916904B0916A04ED0130E0E0
:101C900020E01097A1F420813181820F931F2091C1
:101CA0006704309168042817390709F061C0F09380
:101CB0006804E0936704DF91CF910895EA01CE179D
:101CC000DF07E8F54A815B819E0141155105B1F7B7
:101CD000E901FB83EA8349915991C40FD51FEC17A1
:101CE000FD0761F4808191810296840F951FE901BF
:101CF00099838883828193819B838A83F0E0E0E0EB
:101D000012968D919C9113970097B9F52D913C9166
:101D10001197CD010296820F931F20916704309195
:101D200068042817390739F6309751F510926A047C
:101D300010926904B0936804A0936704BCCFD38366
:101D4000C28340815181840F951FC817D90761F460
:101D50004E5F5F4F88819981480F591F518340839F
:101D60008A819B81938382832115310509F0B0CF4D
:101D7000F0936A04E09369049ECFFD01DC01C0CFBB
:101D800013821282D7CF4F925F926F927F928F927F
:101D90009F92AF92BF92CF92DF92EF92FF920F93FA
:101DA0001F93CF93DF938C01009791F4CB01DF91C8
:101DB000CF911F910F91FF90EF90DF90CF90BF9048
:101DC000AF909F908F907F906F905F904F90B6CE26
:101DD000FC01E60FF71F9C0122503109E217F307BF
:101DE00008F4AAC0D901CD91DC911197C617D70785
:101DF00018F1C530D10570F0CE010497861797070A
:101E000048F0C61BD70B2297C193D1936D937C9357
:101E1000CF0130DFC801DF91CF911F910F91FF906B
:101E2000EF90DF90CF90BF90AF909F908F907F907A
:101E30006F905F904F9008955B01AC1ABD0A4C0102
:101E40008C0E9D1EA0916904B0916A04512C412C06
:101E5000F12CE12C109731F5809167049091680482
:101E60008815990509F05CC04616570608F058C059
:101E700080910A0290910B02009741F48DB79EB7B2
:101E800040910E0250910F02841B950BE817F90741
:101E900008F052C0F0936804E0936704F90171837D
:101EA0006083B8CF8D919C91119712966C90129788
:101EB00013967C901397A815B90559F56C0142E06B
:101EC000C40ED11CCA14DB0420F1AC014A195B0911
:101ED000DA011296159780F06282738251834083F3
:101EE000D9016D937C93E114F10471F0D70113963D
:101EF000FC93EE9312978ECF22968C0F9D1FF901C3
:101F000091838083F301EFCFF0936A04E093690437
:101F100081CF4816590608F42C017D01D3019ACFD0
:101F2000CB010CDE7C01009739F0AE01B80107D07F
:101F3000C801A0DE87016ECF10E000E06BCFFB018F
:101F4000DC0102C001900D9241505040D8F7089535
:101F5000FB01DC0101900D920020E1F7089510E0F3
:101F6000C6EFD0E000E005C0802FFE01DFDD219646
:101F7000011DC73FD10780E00807B1F7F894FFCFF4
:101F80000164006400310031000100006B04800036
:101F9000000000001C027E01AB016802DC01BA01F6
:101FA000CE010D0A002C00564D4450565F317C3155
:101FB0005F564D4450560A0052657665727365004F
:101FC000466F727761726400486172642054757262
:101FD0006E696E67206973204F6E004861726420DD
:101FE0005475726E696E67206973204F666600468D
:101FF00069786564004572726F722072756E6E69E1
:102000006E6720627574746F6E20776974682076CD
:10201000616C75653A20005475726E204C6566746B
:10202000005475726E205269676874004261636B78
:06203000776172640000FC
:020000023000CC
:10E000000D9489F10D94B2F10D94B2F10D94B2F129
:10E010000D94B2F10D94B2F10D94B2F10D94B2F1F0
:10E020000D94B2F10D94B2F10D94B2F10D94B2F1E0
:10E030000D94B2F10D94B2F10D94B2F10D94B2F1D0
:10E040000D94B2F10D94B2F10D94B2F10D94B2F1C0
:10E050000D94B2F10D94B2F10D94B2F10D94B2F1B0
:10E060000D94B2F10D94B2F10D94B2F10D94B2F1A0
:10E070000D94B2F10D94B2F10D94B2F10D94B2F190
:10E080000D94B2F10D94B2F10D94B2F10D94B2F180
:10E090000D94B2F10D94B2F10D94B2F10D94B2F170
:10E0A0000D94B2F10D94B2F10D94B2F10D94B2F160
:10E0B0000D94B2F10D94B2F10D94B2F10D94B2F150
:10E0C0000D94B2F10D94B2F10D94B2F10D94B2F140
:10E0D0000D94B2F10D94B2F10D94B2F10D94B2F130
:10E0E0000D94B2F141546D656761323536300041AF
:10E0F000726475696E6F206578706C6F72657220DE
:10E1000073746B3530305632206279204D4C530099
:10E11000426F6F746C6F616465723E004875683F52
:10E1200000436F6D70696C6564206F6E203D200048
:10E130004350552054797065202020203D20005FF9
:10E140005F4156525F415243485F5F3D2000415658
:10E1500052204C696243205665723D20004743437C
:10E160002056657273696F6E203D20004350552024
:10E1700049442020202020203D20004C6F7720663D
:10E18000757365202020203D20004869676820665F
:10E190007573652020203D200045787420667573D6
:10E1A00065202020203D20004C6F636B2066757336
:10E1B000652020203D20004D617220203720323024
:10E1C000313300312E362E3800342E332E350056A2
:10E1D00023202020414444522020206F7020636F70
:10E1E00064652020202020696E73747275637469E1
:10E1F0006F6E2061646472202020496E74657272B3
:10E20000757074006E6F20766563746F7200726A49
:10E210006D702020006A6D70200057686174207056
:10E220006F72743A00506F7274206E6F7420737541
:10E2300070706F72746564004D7573742062652030
:10E2400061206C6574746572002000577269747483
:10E25000696E672045450052656164696E672045B7
:10E26000450045452065727220636E743D00504F35
:10E27000525400303D5A65726F2061646472003FF1
:10E280003D43505520737461747300403D454550C3
:10E29000524F4D207465737400423D426C696E6B41
:10E2A000204C454400453D44756D70204545505215
:10E2B0004F4D00463D44756D7020464C415348001B
:10E2C000483D48656C70004C3D4C69737420492F83
:10E2D0004F20506F72747300513D51756974005234
:10E2E0003D44756D702052414D00563D73686F7707
:10E2F00020696E7465727275707420566563746FF0
:10E30000727300593D506F727420626C696E6B00BD
:10E310002A0011241FBECFEFD1E2DEBFCDBF01E046
:10E320000CBF12E0A0E0B2E0EEE1FDEF03E00BBFB6
:10E3300002C007900D92A030B107D9F712E0A0E01B
:10E34000B2E001C01D92AE30B107E1F70F9460F367
:10E350000D948DFE01E20EBF0FEF0DBF11241FBE05
:10E360000D9460F30D9400F020E030E040ED57E0B4
:10E3700005C0FA013197F1F72F5F3F4F2817390792
:10E38000C0F308959C01260F311DC901A0E0B0E043
:10E390002F5F3F4FABBFFC018791882361F08093D3
:10E3A000C6008091C00086FFFCCF8091C0008064D1
:10E3B0008093C000EACF08958DE08093C6008091DD
:10E3C000C00086FFFCCF8091C00080648093C000B5
:10E3D0008AE08093C6008091C00086FFFCCF8091C8
:10E3E000C00080648093C00008950F94C2F10F9420
:10E3F000DCF10895FC019081992359F09093C600B7
:10E400008091C00086FFFCCF8091C0008064809323
:10E41000C0003196992379F70895282F982F929567
:10E420009F70892F805D8A3308F0895F8093C600D2
:10E430008091C00086FFFCCF8091C00080648093F3
:10E44000C000822F8F70982F905D9A3308F0995FEB
:10E450009093C6008091C00086FFFCCF8091C000E1
:10E4600080648093C00008959C01FB01853691056E
:10E470001CF46330710594F0C90164E670E00F94F8
:10E480002EFE605D7F4F6093C6008091C00086FFC6
:10E49000FCCF8091C00080648093C0002B30310598
:10E4A00014F43297B4F0C90164E670E00F942EFEC4
:10E4B0006AE070E00F942EFE605D7F4F6093C600AF
:10E4C0008091C00086FFFCCF8091C0008064809363
:10E4D000C000C9016AE070E00F942EFEC0968093E0
:10E4E000C6008091C00086FFFCCF8091C000806490
:10E4F0008093C00008951F93182F8EE692EE60E07F
:10E500000F94C2F11093C6008091C00086FFFCCF2B
:10E510008091C00080648093C0000F94DCF11F9153
:10E5200008952F923F924F925F926F927F928F92B7
:10E530009F92AF92BF92CF92DF92EF92FF920F9392
:10E540001F93DF93CF93CDB7DEB762970FB6F894E2
:10E55000DEBF0FBECDBF382E622ECA01DB015C01CB
:10E560006D01772420E2222E2E010894411C511CBB
:10E570008BC081E0A81680E0B80681E0C80680E084
:10E58000D80628F0C601AA27BB270F940DF2BB2797
:10E59000AD2D9C2D8B2D0F940DF28A2D0F940DF225
:10E5A0002092C6008091C00086FFFCCF8091C00001
:10E5B00080648093C0009DE29093C6008091C0006B
:10E5C00086FFFCCF8091C00080648093C0002092C1
:10E5D000C6008091C00086FFFCCF8091C00080649F
:10E5E0008093C00019828601750188249924A1E0D6
:10E5F0003A1651F03A1620F0B2E03B1661F409C029
:10E600000BBFF701779007C0C7010F9477FE782EF4
:10E6100002C0F7017080872D0F940DF22092C60082
:10E620008091C00086FFFCCF8091C0008064809301
:10E63000C000872D8052F401EF70F0708F3520F408
:10E64000E40DF51D708204C0E40DF51D8EE280839B
:10E650000894E11CF11C011D111D0894811C911CE2
:10E6600090E18916910409F0C2CF80E190E0A0E02A
:10E67000B0E0A80EB91ECA1EDB1E198AC2010F9493
:10E68000FAF10F94DCF16A94662009F072CF629679
:10E690000FB6F894DEBF0FBECDBFCF91DF911F91B3
:10E6A0000F91FF90EF90DF90CF90BF90AF909F9031
:10E6B0008F907F906F905F904F903F902F90089534
:10E6C0002F923F924F925F926F927F928F929F9282
:10E6D000AF92BF92CF92DF92EF92FF920F931F9370
:10E6E000DF93CF93CDB7DEB7CD53D1400FB6F894BB
:10E6F000DEBF0FBECDBF01E20EBF0FEF0DBF94B75F
:10E70000F894A89514BE80916000886180936000A1
:10E7100010926000789493FF05C0E0910002F091A0
:10E7200001021995279A2F9A8091C00082608093E8
:10E73000C00080E18093C40088E18093C1000000A4
:10E74000EE24FF24870144E0A42EB12CCC24DD2448
:10E7500024C0C5010197F1F70894E11CF11C011DCB
:10E76000111D21E2E2162EE4F20620E0020720E06D
:10E77000120718F031E0C32ED12CC801B70127ECE5
:10E780003BE140E050E00F9441FE611571058105C9
:10E79000910519F485B1805885B98091C00087FD35
:10E7A00003C0C114D104A9F2A6014F5F5F4FC25E3E
:10E7B000DE4F59834883CE51D140C25EDE4F8881FF
:10E7C0009981CE51D140019711F00D9410FEC05D9A
:10E7D000DE4F19821882C053D14060E0C15DDE4F28
:10E7E0001882CF52D14088249924C35DDE4F19820C
:10E7F0001882CD52D140C05EDE4F188219821A8233
:10E800001B82C052D140CE5CDE4F188219821A8220
:10E810001B82C253D140EE24FF2487010BBFF701B6
:10E8200007911691C45CDE4F19830883CC53D14005
:10E830000D940BFEC25EDE4F28813981CE51D1404E
:10E840002130310509F52091C600C25EDE4F1982E4
:10E850001882CE51D14022C02F5F3F4F4F4F5F4FA4
:10E86000213082E138078AE7480780E0580780F0C6
:10E87000C45CDE4FE881F981CC53D140EF5FFF4F9C
:10E8800019F0EE27FF27099420E030E040E050E047
:10E890008091C00087FFE0CF2091C600C35DDE4FAE
:10E8A00048815981CD52D1404F5F5F4FC35DDE4FEC
:10E8B00059834883CD52D140213209F063C64A3092
:10E8C000510508F05FC60894811C911C53E0851621
:10E8D000910409F059C600E010E018C081E280936D
:10E8E000C6008091C00086FFFCCF8091C00080648C
:10E8F0008093C0002F5F3F4F2931310579F70F9486
:10E90000DCF10F5F1F4F0530110519F020E030E0FA
:10E91000E5CF10920A0210920B0210920C02109294
:10E920000D02109206021092070210920802109235
:10E930000902109202021092030210920402109235
:10E9400005028FEE90EE60E00F94F5F180E191EE1C
:10E9500060E00F94C2F18091C00087FFFCCF9091DE
:10E96000C600903608F09F759032B8F09093C600BC
:10E970008091C00086FFFCCF8091C00080648093AE
:10E98000C000A0E2A093C6008091C00086FFFCCF2B
:10E990008091C00080648093C000983409F4D7C18E
:10E9A0009934B8F4923409F459C1933458F490333B
:10E9B00019F1903308F4E3C59F33A1F1903409F0C5
:10E9C000DEC5BDC0953409F470C1963409F0D7C5D1
:10E9D00098C1923509F42BC2933538F49C3409F46C
:10E9E000F5C1913509F0CBC518C2963509F445C279
:10E9F000993509F0C4C567C483E792EE62E00F94CD
:10EA0000F5F110920602109207021092080210927D
:10EA1000090210920A0210920B0210920C0210923C
:10EA20000D0213C18FE792EE62E00F94F5F18FEEC5
:10EA300090EE60E00F94F5F181E291EE60E00F94CA
:10EA4000C2F187EB91EE60E00F94F5F180E391EE77
:10EA500060E00F94C2F184EE90EE60E00F94F5F167
:10EA60008FE391EE60E00F94C2F186E090E061E008
:10EA700070E00F9434F20F94DCF18DE591EE60E0DC
:10EA80000F94C2F189EC91EE60E00F94F5F18EE401
:10EA900091EE60E00F94C2F183EC91EE60E00F9490
:10EAA000F5F18CE691EE60E00F94C2F18EE10F94E7
:10EAB0000DF288E90F940DF281E00F940DF20F949E
:10EAC000DCF18BE791EE60E00F94C2F119E0E0E039
:10EAD000F0E010935700E4918E2F0F940DF20F94F5
:10EAE000DCF18AE891EE60E00F94C2F1E3E0F0E03F
:10EAF00010935700E4918E2F0F940DF20F94DCF1D8
:10EB000089E991EE60E00F94C2F1E2E0F0E0109349
:10EB10005700E4918E2F0F940DF20F94DCF188EAE8
:10EB200091EE60E00F94C2F1E1E0F0E01093570045
:10EB30001491812F0F940DF20F94DCF107CF8BE825
:10EB400092EE62E00F94F5F18BE492EE60E00F94A8
:10EB5000F5F10F94DCF100E010E019C0C8016F2D51
:10EB60000F947FFEFF2031F489E492EE60E00F9471
:10EB7000C2F10BC0F092C6008091C00086FFFCCFAE
:10EB80008091C00080648093C0000F5F1F4FC80158
:10EB900081519F41A0E0B0E0ABBFFC01F790BAE229
:10EBA000FB1621F0E2E000301E07C1F60F94DCF105
:10EBB0000F94DCF187E592EE60E00F94F5F10F948D
:10EBC000DCF1CC24DD2400E010E01EC0C8010F946D
:10EBD00077FEF82E882331F489E492EE60E00F94FA
:10EBE000C2F10BC08093C6008091C00086FFFCCFAD
:10EBF0008091C00080648093C000FE1419F00894D6
:10EC0000C11CD11C0F5F1F4FC80181519F41A0E063
:10EC1000B0E0ABBFFC01E790FAE2EF1621F022E092
:10EC20000030120799F60F94DCF10F94DCF182E6C4
:10EC300092EE60E00F94C2F1C60161E070E00F94C3
:10EC400034F20F94DCF10F94DCF110920202109276
:10EC50000302109204021092050278CE89E992EE26
:10EC600062E00F94F5F1279A2F9A16C02F9880E052
:10EC700090E0E0EDF7E03197F1F7019684369105E9
:10EC8000C1F72F9A80E090E0E0EDF7E03197F1F7DF
:10EC9000019684369105C1F78091C00087FFE6CFC9
:10ECA0008091C00087FFFCCF64C485EA92EE62E0E9
:10ECB0000F94F5F140910202509103026091040219
:10ECC0007091050281E020E10F9491F2809102029F
:10ECD00090910302A0910402B091050280509F4FD1
:10ECE000AF4FBF4F8093020290930302A0930402A0
:10ECF000B093050280509041A040B04008F426CE69
:10ED0000A4CF83EB92EE62E00F94F5F140910602FE
:10ED100050910702609108027091090280E020E1A1
:10ED20000F9491F28091060290910702A09108023F
:10ED3000B091090280509F4FAF4FBF4F80930602A2
:10ED400090930702A0930802B0930902FFCD80ECD4
:10ED500092EE62E00F94F5F183E792EE60E00F949B
:10ED6000F5F18FE792EE60E00F94F5F18BE892EE0B
:10ED700060E00F94F5F189E992EE60E00F94F5F10F
:10ED800085EA92EE60E00F94F5F183EB92EE60E09D
:10ED90000F94F5F180EC92EE60E00F94F5F187ECC2
:10EDA00092EE60E00F94F5F188ED92EE60E00F9442
:10EDB000F5F18FED92EE60E00F94F5F18AEE92EEB0
:10EDC00060E00F94F5F183E093EEBDCD87EC92EE19
:10EDD00062E00F94F5F181E40F947BF282E40F94EA
:10EDE0007BF283E40F947BF284E40F947BF285E45E
:10EDF0000F947BF286E40F947BF287E40F947BF20E
:10EE000088E40F947BF28AE40F947BF28BE40F94F6
:10EE10007BF28CE40F947BF299CD88ED92EE62E068
:10EE20000F94F5F1772473948824992409C48FED05
:10EE300092EE62E00F94F5F140910A0250910B02BC
:10EE400060910C0270910D0282E020E10F9491F22A
:10EE500080910A0290910B02A0910C02B0910D02D8
:10EE600080509F4FAF4FBF4F80930A0290930B0289
:10EE7000A0930C02B0930D0269CD8AEE92EE62E08F
:10EE80000F94F5F184EE90EE60E00F94F5F18FECC5
:10EE900091EE60E00F94F5F1662477244301CC5D98
:10EEA000DE4F19821882C452D140D401C301B695F5
:10EEB000A79597958795CA5DDE4F88839983AA8326
:10EEC000BB83C652D140CC5DDE4FA881B981C4520C
:10EED000D1401196CC5DDE4FB983A883C452D14096
:10EEE000CD0162E070E00F9434F2B0E2B093C6005E
:10EEF0008091C00086FFFCCF8091C0008064809329
:10EF0000C000EDE2E093C6008091C00086FFFCCF18
:10EF10008091C00080648093C000F0E2F093C6004E
:10EF20008091C00086FFFCCF8091C00080648093F8
:10EF3000C000CA5DDE4FE880F9800A811B81C6529D
:10EF4000D140BB27A12F902F8F2D0F940DF2CA5DBA
:10EF5000DE4F8881C652D1400F940DF2B0E2FB2EF5
:10EF6000F092C6008091C00086FFFCCF8091C00067
:10EF700080648093C0000DE30093C6008091C000C0
:10EF800086FFFCCF8091C00080648093C00010E2B7
:10EF90001093C6008091C00086FFFCCF8091C00016
:10EFA00080648093C0008BBEF3012791C65DDE4F65
:10EFB0002883CA52D140A22EBB24CC24DD2408943D
:10EFC000611C711C811C911C8BBEF3018791282E42
:10EFD0003324442455240894611C711C811C911C09
:10EFE0008BBEF3013791C55DDE4F3883CB52D140E4
:10EFF0000894611C711C811C911C8BBEF30147910C
:10F00000C45DDE4F4883CC52D140ADEFEA2EAFEF66
:10F01000FA2EAFEF0A2FAFEF1A2F6E0C7F1C801E57
:10F02000911E142D032DF22CEE24EA0CFB1C0C1D5A
:10F030001D1D0F940DF220E22093C6008091C000A8
:10F0400086FFFCCF8091C00080648093C000C65DC5
:10F05000DE4F8881CA52D1400F940DF230E23093D6
:10F06000C6008091C00086FFFCCF8091C000806404
:10F070008093C000C45DDE4F8881CC52D1400F9494
:10F080000DF240E24093C6008091C00086FFFCCFA5
:10F090008091C00080648093C000C55DDE4F888190
:10F0A000CB52D1400F940DF250E25093C6008091A4
:10F0B000C00086FFFCCF8091C00080648093C000B8
:10F0C0008FEFE8168FEFF80680E0080780E018075A
:10F0D00031F484E092EE60E00F94C2F1DFC0D80119
:10F0E000C7018070907CA070B0708050904CA040A0
:10F0F000B040D1F52FEF3FE340E050E0E222F322B1
:10F1000004231523CA5DDE4FA880B980CA80DB8046
:10F11000C652D140AE0CBF1CC01ED11EAA0CBB1CD7
:10F12000CC1CDD1C8EE092EE60E00F94C2F1BB2798
:10F13000A12F902F8F2D0F940DF28E2D0F940DF285
:10F1400030E23093C6008091C00086FFFCCF8091F2
:10F15000C00080648093C0004EE34093C60080915D
:10F16000C00086FFFCCF87C08EE09EEFA0E0B0E03D
:10F17000E822F9220A231B239CE0E91694E9F90608
:10F1800090E0090790E0190709F088C0C45DDE4FE0
:10F19000A881CC52D140EA2EFF2400E010E0102FCD
:10F1A0000F2DFE2CEE24C55DDE4FB881CB52D14031
:10F1B000EB0EF11C011D111DD601C501817090706F
:10F1C000A070B070DC0199278827E80EF91E0A1F8D
:10F1D0001B1F20EF30E040E050E0A222B322C42207
:10F1E000D52241E1AA0CBB1CCC1CDD1C4A95D1F7F1
:10F1F000EA0CFB1C0C1D1D1D81E090E0A0E0B0E0BE
:10F20000282239224A225B2235E1220C331C441C7D
:10F21000551C3A95D1F7E20CF31C041D151D57013E
:10F220006801AA0CBB1CCC1CDD1C85E192EE60E0E1
:10F230000F94C2F1C801AA27BB270F940DF2BB2778
:10F24000A12F902F8F2D0F940DF28E2D0F940DF274
:10F2500090E29093C6008091C00086FFFCCF809121
:10F26000C00080648093C000AEE3A093C60080918C
:10F27000C00086FFFCCF8091C00080648093C000F6
:10F28000C601AA27BB270F940DF2BB27AD2D9C2DDD
:10F290008B2D0F940DF28A2D0F940DF20F94DCF14B
:10F2A000CC5DDE4FE881F981C452D140F99709F471
:10F2B0004DCBF4E0EF2EF12C012D112D6E0C7F1CA7
:10F2C000801E911EF2CD83E093EE62E00F94F5F183
:10F2D0008AE192EE60E00F94C2F18091C00087FF56
:10F2E000FCCF1091C6001F751093C6008091C0001E
:10F2F00086FFFCCF8091C00080648093C0000F9493
:10F30000DCF1812F81548A3108F036C1163409F4BA
:10F3100095C0173490F4133409F44EC0143430F40B
:10F320001134F1F0123409F01DC130C0143409F465
:10F3300059C0153409F016C16BC01A3409F4C4C0A1
:10F340001B3438F4173409F48FC0183409F00AC19B
:10F35000A1C01B3409F4D2C01C3409F003C1E8C0B9
:10F360008FEF81B90DC082B1809582B980E090E0C5
:10F37000E0EDF7E03197F1F70196883C9105C1F790
:10F380008091C00087FFEFCF12B8EFC08FEF84B934
:10F390000DC085B1809585B980E090E0E0EDF7E0A3
:10F3A0003197F1F70196883C9105C1F78091C00033
:10F3B00087FFEFCF15B8D9C08FEF87B90DC088B1DF
:10F3C000809588B980E090E0E0EDF7E03197F1F7C3
:10F3D0000196883C9105C1F78091C00087FFEFCF6F
:10F3E00018B8C3C08FEF8AB90DC08BB180958BB9A7
:10F3F00080E090E0E0EDF7E03197F1F70196883C8E
:10F400009105C1F78091C00087FFEFCF1BB8ADC059
:10F410008FEF8DB90DC08EB180958EB980E090E0F0
:10F42000E0EDF7E03197F1F70196883C9105C1F7DF
:10F430008091C00087FFEFCF1EB897C08FEF80BBD1
:10F440000DC081B3809581BB80E090E0E0EDF7E0F6
:10F450003197F1F70196883C9105C1F78091C00082
:10F4600087FFEFCF11BA81C08FEF83BB0DC084B38C
:10F47000809584BB80E090E0E0EDF7E03197F1F714
:10F480000196883C9105C1F78091C00087FFEFCFBE
:10F4900014BA6BC08FEF809301010FC080910201FD
:10F4A00080958093020180E090E0E0EDF7E03197F5
:10F4B000F1F70196883C9105C1F78091C00087FF64
:10F4C000EDCF1092020151C08FEF809304010FC065
:10F4D0008091050180958093050180E090E0E0ED4A
:10F4E000F7E03197F1F70196883C9105C1F78091DB
:10F4F000C00087FFEDCF1092050137C08FEF8093DA
:10F5000007010FC08091080180958093080180E079
:10F5100090E0E0EDF7E03197F1F70196883C910536
:10F52000C1F78091C00087FFEDCF109208011DC088
:10F530008FEF80930A010FC080910B01809580931B
:10F540000B0180E090E0E0EDF7E03197F1F70196F4
:10F55000883C9105C1F78091C00087FFEDCF1092E4
:10F560000B0103C085E292EEEEC98091C00087FFD7
:10F57000FCCF8091C600EAC988E392EEE4C98CE131
:10F5800091EEE1C988249924933011F1943028F444
:10F59000913089F09230B8F408C0953061F195301F
:10F5A000F0F0963009F048C043C02B3109F042C951
:10F5B00091E06BE13FC96227C15DDE4F2883CF52E6
:10F5C000D14092E037C9B22FA0E0622793E032C960
:10F5D000822F90E0A82BB92B622794E02BC92E3004
:10F5E00009F039C3622795E0C05DDE4F19821882A9
:10F5F000C053D1401FC9E1E0F0E0EC0FFD1FC05D3A
:10F60000DE4F08811981C053D140E00FF11F2083E4
:10F610000F5F1F4FC05DDE4F19830883C053D14079
:10F6200062270A171B0709F005C9D80196E002C92D
:10F63000261709F010C303C0973009F0FBC87724E0
:10F640009981933109F412C19431C8F4963009F4C8
:10F65000D8C0973050F4923009F406C1933009F4C1
:10F660006DC0913009F059C253C0913109F477C08F
:10F67000923108F0BBC0903109F04FC2F5C098310B
:10F6800009F487C0993150F4953109F4EFC09531F0
:10F6900008F4C6C1963109F040C2C2C19A3109F4DA
:10F6A0006CC09A3108F491C09B3109F45BC09D3164
:10F6B00009F033C29D81903359F48F81882311F46E
:10F6C0009EE11CC0813011F091E018C098E916C08D
:10F6D000892F807591F0903539F4E0E0F0E089E011
:10F6E0008093570094910AC0983539F4E3E0F0E034
:10F6F00089E080935700949101C090E01A821B82A8
:10F700008D818C831D829E831F8227E030E009C299
:10F710001A8288E08B8381E48C8386E58D8382E581
:10F720008E8389E48F8383E5888780E589878FE5E9
:10F730008A8782E38B872BE030E0F3C18A818139AD
:10F7400041F0823941F0803911F48FE005C080E04A
:10F7500003C082E001C08AE01A828B8344C0772410
:10F76000739482C08D81882311F48EE12CC0813086
:10F7700011F081E028C088E926C01A82E1E0F0E0BB
:10F7800089E08093570084918B831C8224E030E0D1
:10F79000C8C18B81803589F48C81883039F4E2E0EE
:10F7A000F0E089E08093570084910DC0E0E0F0E044
:10F7B00089E080935700849106C0E3E0F0E089E09F
:10F7C0008093570084911A82DFCF8D81836C99E0FA
:10F7D000E1E0F0E0082E90935700E89507B600FCB2
:10F7E000FDCF1A821B8223E030E09BC180EC8A832C
:10F7F000CE5CDE4F188219821A821B82C253D1401E
:10F800008EC18A8190E0A0E0B0E0582F44273327D2
:10F8100022278B8190E0A0E0B0E0DC0199278827C7
:10F82000282B392B4A2B5B2B8D8190E0A0E0B0E098
:10F83000282B392B4A2B5B2B8C8190E0A0E0B0E089
:10F84000BA2FA92F982F8827282B392B4A2B5B2BCF
:10F85000220F331F441F551FC05EDE4F288339839C
:10F860004A835B83C052D1401A8259C13A81C95C34
:10F87000DE4F3883C753D140CA5CDE4F1882C6536F
:10F88000D1408B81C82EDD24CA5CDE4F488159816E
:10F89000C653D140C42AD52A933109F082C0CE5C28
:10F8A000DE4F88819981AA81BB81C253D1408050AB
:10F8B000904CA340B04030F583E0CE5CDE4FE88052
:10F8C000F9800A811B81C253D140F70100935B008C
:10F8D00080935700E89507B600FCFDCFCE5CDE4F65
:10F8E000088119812A813B81C253D14000501F4FAA
:10F8F0002F4F3F4FCE5CDE4F088319832A833B8313
:10F90000C253D140C05EDE4F488159816A817B81FC
:10F91000C052D140DE011B9631E08C9111962C91A2
:10F9200011971296C75CDE4F2883C953D140C85C3B
:10F93000DE4F1882C853D14090E0C85CDE4FE881AA
:10F94000F981C853D1408E2B9F2B0C01FA01609393
:10F950005B0030935700E89511244E5F5F4F6F4F67
:10F960007F4F0EEFE02E0FEFF02ECE0CDF1CC114F8
:10F97000D10499F685E0C05EDE4F088119812A81A5
:10F980003B81C052D140F80120935B008093570027
:10F99000E89507B600FCFDCF81E180935700E8951C
:10F9A00035C0C05EDE4F88819981AA81BB81C0527B
:10F9B000D140B695A795979587957C018601ABE0D8
:10F9C000AA2EB12CAC0EBD1E0BC0D5016D915D01F0
:10F9D000C7010F947FFE0894E11CF11C01501040F8
:10F9E0000115110591F7A60160E070E0440F551F65
:10F9F000661F771FC05EDE4FE880F9800A811B8199
:10FA0000C052D1404E0D5F1D601F711F1A82C05E33
:10FA1000DE4F488359836A837B83C052D1407FC0C5
:10FA2000FA80C55CDE4FF882CB53D140C65CDE4F16
:10FA30001882CA53D1408B81C82EDD24C65CDE4FAC
:10FA400008811981CA53D140C02AD12A1A828981DA
:10FA5000BE016D5F7F4F843121F59601C05EDE4FA0
:10FA6000E880F9800A811B81C052D1400BBFF701A9
:10FA700087919691DB018C9311969C936E5F7F4FDB
:10FA8000D801C7010296A11DB11DC05EDE4F88835B
:10FA90009983AA83BB83C052D14022503040F1F6F3
:10FAA00036C0C05EDE4F288139814A815B81C052F9
:10FAB000D1400894C108D108760100E010E0089414
:10FAC000C11CD11C0894E11CF11C011D111DE20E8A
:10FAD000F31E041F151F21BDBB27A52F942F832FB5
:10FAE00082BD2F5F3F4F4F4F5F4FF89A80B5DB01CC
:10FAF0008D93BD012E153F054007510761F7C05E8C
:10FB0000DE4F288339834A835B83C052D1409601FC
:10FB10002D5F3F4FFB01108204C080EC8A8322E0FE
:10FB200030E08BE18093C6008091C00086FFFCCF5F
:10FB30008091C00080648093C000C15DDE4FF88179
:10FB4000CF52D140F093C6008091C00086FFFCCF19
:10FB50008091C00080648093C000432F3093C60022
:10FB60008091C00086FFFCCF8091C00080648093AC
:10FB7000C000922F2093C6008091C00086FFFCCF6A
:10FB80008091C00080648093C0008EE08093C600A6
:10FB90008091C00086FFFCCF8091C000806480937C
:10FBA000C00065E1C15DDE4FE880CF52D1406E25D7
:10FBB00069276427FE01319610C090819093C6009A
:10FBC0008091C00086FFFCCF31968091C000806498
:10FBD0008093C0006927215030402115310569F715
:10FBE0006093C6008091C00086FFFCCF8091C0006A
:10FBF00080648093C00085B1805885B9772081F4F6
:10FC0000C15DDE4F0881CF52D1400F5FC15DDE4F35
:10FC10000883CF52D14090E0A0E0B0E00D941AF4F8
:10FC200027982F9880E090E020ED37E0F901319798
:10FC3000F1F7019684369105C9F700008091C00064
:10FC40008D7F8093C00081E180935700E895EE2777
:10FC5000FF270994FFCF90E00D941AF497FB092E2B
:10FC600007260AD077FD04D02ED006D000201AF443
:10FC7000709561957F4F0895F6F7909581959F4F08
:10FC80000895A1E21A2EAA1BBB1BFD010DC0AA1FDD
:10FC9000BB1FEE1FFF1FA217B307E407F50720F0F5
:10FCA000A21BB30BE40BF50B661F771F881F991F70
:10FCB0001A9469F760957095809590959B01AC01B9
:10FCC000BD01CF010895AA1BBB1B51E107C0AA1FAC
:10FCD000BB1FA617B70710F0A61BB70B881F991FED
:10FCE0005A95A9F780959095BC01CD010895F99991
:10FCF000FECF92BD81BDF89A992780B50895262F31
:10FD0000F999FECF1FBA92BD81BD20BD0FB6F89400
:0EFD1000FA9AF99A0FBE01960895F894FFCF63
:040000033000E000E9
:00000001FF